:020000040800F2
:100000000080012095DE0008E1DE0008810700087D
:1000100099070008B1070008C907000800000000A0
:10002000000000000000000000000000D5040008EF
:10003000E1DE00080000000045050008010E000890
:10004000E1DE0008E1DE0008E1DE0008E1DE000894
:10005000E1DE0008E1DE0008E1DE0008E1DE000884
:10006000E1DE0008E1DE0008E1DE0008E1DE000874
:10007000E1DE0008E1DE0008E1DE0008E1DE000864
:10008000E1DE0008E1DE0008E1DE0008000000001B
:10009000000000000000000000000000E1DE000899
:1000A000E1DE0008E1DE0008E1DE0008E1DE000834
:1000B000E1DE0008E1DE0008E1DE0008E1DE000824
:1000C000E1DE0008E1DE0008E1DE0008E1DE000814
:1000D000E1DE0008E1DE0008E1DE000800000000CB
:1000E000E1DE0008E1DE0008E1DE000800000000BB
:1000F000000000000000000000000000E1DE000839
:1001000000000000E1DE0008E1DE0008E1DE00089A
:1001100000000000000000000000000000000000DF
:10012000E1DE0008E1DE0008E1DE0008E1DE0008B3
:10013000E1DE0008000000000000000000000000F8
:10014000000000000000000000000000E1DE0008E8
:10015000E1DE0008E1DE0008E1DE0008E1DE000883
:10016000E1DE0008E1DE0008000000000000000001
:10017000000000000000000000000000000000007F
:1001800000000000E1DE00080000000000000000A8
:10019000E1DE0008044B05481B1A062B02D9044B6C
:1001A00003B11847704700BF1F0D00201C0D002031
:1001B0000000000005490648091A891001EBD171B9
:1001C000491002D0034B03B1184770471C0D0020A3
:1001D0001C0D00200000000010B5064C237843B928
:1001E000FFF7D8FF044B13B10448AFF3008001239D
:1001F000237010BD1C0D002000000000705C020880
:1002000008B5084B1BB108490848AFF300800848FF
:10021000036813B9BDE80840CCE7064B002BF9D0C2
:100220009847F7E700000000200D0020705C0208EE
:10023000180D002000000000154B002B08BF134BC9
:100240009D46A3F5803A00218B460F461348144A79
:10025000121A0FF0F8FD0F4B002B00D098470E4BF1
:10026000002B00D098470020002104000D000D480D
:10027000002802D00C48AFF300800FF053FD20009F
:1002800029000DF0A5FF0FF0ABFB00BF0000080038
:100290000080012000000000000000001C0D002074
:1002A0009C110020000000000000000010B50FF0BD
:1002B00021FA03464FF000041846214610BD00BF46
:1002C00010B4044B1B684FF00004184621465DF83B
:1002D000044B7047680C002082B0EFF31483019345
:1002E000019B00BF184602B0704700BF82B0EFF319
:1002F00005830193019B00BF184602B0704700BF01
:1003000010B4EFF309831C46234600BF18465DF87E
:10031000044B704784B00190019B0393039B83F3CC
:100320000988BFF36F8F00BF04B0704710B4EFF3BC
:1003300008831C46234600BF18465DF8044B7047EF
:10034000014B1846704700BFFC7F012082B0EFF3DD
:1003500010830193019B00BF184602B0704700BF95
:1003600010B485B00190EFF310830393039B1C46F8
:10037000019B0293029B83F31088BFF36F8F234688
:10038000184605B05DF8044B704700BF82B0EFF32C
:1003900011830193019B1B09184602B0704700BFEF
:1003A00010B487B0019001230593059B83F3108857
:1003B000BFF36F8FEFF311830493049B1C09019B20
:1003C0001B010393039B83F3118800230293029B79
:1003D00083F31088BFF36F8F2346184607B05DF88C
:1003E000044B704782B0EFF313830193019B00BF6E
:1003F000184602B0704700BF014B1B681846704793
:1004000034EF00E082B00190024A019B136000BF0C
:1004100002B0704734EF00E082B00190024A019BC5
:10042000136000BF02B0704714ED00E084B001908B
:10043000064B1B680393039A019B13430393034AE0
:10044000039B136000BF04B0704700BF24ED00E0C1
:1004500084B00190064B1B680393039A019B1343DE
:100460000393034A039B136000BF04B0704700BFAF
:1004700004ED00E082B00190024A019B136000BFCE
:1004800002B0704710ED00E020BF00BF704700BF12
:1004900011DF00BF0000000012DF00BF00000000FD
:1004A00013DF00BF0000000014DF00BF704700BF73
:1004B00082B00190024A019B136000BF02B07047F6
:1004C000A001002000000000014B1846704700BF4B
:1004D000380D00201EF0040F0CBFEFF30880EFF37F
:1004E0000980D0F818C03CF802CC3CF47F4CBCF139
:1004F000140F16D17246EFF3148320E9FC0F0F4B53
:10050000194602464FF0120C13680B6002F1040208
:1005100001F10401BCF1010CBCF1000FF4D1B0E811
:10052000FC0F074B1946C1F800E000F05BFF044BDD
:100530001946D1F800E0704700BF00BF380D002019
:10054000A0010020EFF309801EF01001002908BF70
:1005500020ED108A7246EFF3148320E9FC0F00F0BF
:1005600075FFB0E8FC0F964683F31488BFF36F8FD6
:100570001EF01001002908BFB0EC108A80F3098832
:10058000704700BF00BF704700BF00BF704700BF8B
:1005900086B003900291019200230593059A019B76
:1005A0009A4217D2059B5B00029A13441B88ADF850
:1005B0001230039A059B1344BDF81220FF2A03D87A
:1005C000BDF81220D2B200E03F221A70059B013321
:1005D0000593E3E700BF06B0704700BF82B001900B
:1005E00000BF00BF02B0704700B5C3B001AB1860D8
:1005F0006B4619606B461B68FF2B11D86A4601AB2E
:1006000002A812681968FFF7C3FF02AA6B461B68AD
:10061000134400221A7002AB1846FFF7DFFF02E016
:100620000348FFF7DBFF00BF43B05DF804FB00BFEA
:100630007C5B010800B5ADF5057D03AB186002AB2E
:10064000196001AB1A6002AB1B68FF2B19D802AA14
:1006500003AB44A812681968FFF79AFF44AA02ABDB
:100660001B68134400221A7001AB44AA04A81B683B
:100670004FF4807110F0A4FC04AB1846FFF7AEFFF6
:1006800002E00448FFF7AAFF00BF0DF5057D5DF805
:1006900004FB00BF7C5B010810B5ADF5067D05AC21
:1006A000206004A8016003A90A6002AA136004ABD9
:1006B0001B68FF2B1DD804AA05AB46A81268196851
:1006C000FFF766FF46AA04AB1B68134400221A70AA
:1006D00003AB46A906A802AA126800921B680A4644
:1006E0004FF4807110F06CFC06AB1846FFF776FFF4
:1006F00002E00348FFF772FF00BF0DF5067D10BD55
:100700007C5B0108024B1B6803F00103184670472D
:10071000F0ED00E0014B1B681846704728ED00E043
:10072000014B1B68184670472CED00E0014B1B681D
:100730001846704734ED00E0014B1B6818467047BF
:1007400038ED00E008B5FFF7DDFF0346002B14BFCE
:1007500001230023DBB2002B01D000BE01E020BF4B
:10076000FDE708BD00B583B00190044A019B13600A
:10077000FFF7E8FF00BF03B05DF804FB800D002029
:100780001EF0040F0CBFEFF30880EFF3098000F0B8
:1007900053FC704700BF00BF1EF0040F0CBFEFF307
:1007A0000880EFF3098000F073FC704700BF00BFC2
:1007B0001EF0040F0CBFEFF30880EFF3098000F088
:1007C00029FD704700BF00BF1EF0040F0CBFEFF300
:1007D0000880EFF3098000F0C5FC704700BF00BF40
:1007E00000B583B001900091019B1B785BB2B3F11F
:1007F000FF3F04D134220B490B480EF0ABFF009BA6
:10080000002B05D0019BDB68019A52681A6005E055
:10081000019BDB68019A526812041A6000BF03B0A2
:100820005DF804FBA05B0108045C010800B585B01D
:1008300001900091009B002B02D14FF07D431BE003
:10084000282000F027FF0390039B002B02D14FF0DC
:100850007A4311E0039B019AD2B252B21146184674
:100860000EF0F2FB039B00221A62039B00225A62E5
:10087000009B039A1A600023184605B05DF804FB3C
:1008800000B585B001900B468DF80330019B0393B2
:100890009DF80330012B01D1012300E002238DF8E4
:1008A0000B30039B1B6A0398039A516A9DF80B2037
:1008B000984700BF05B05DF804FB00BF00B589B0E4
:1008C0000390019200930B468DF80B30039B059328
:1008D0000023079300230693059B002B06D0019B62
:1008E000002B03D09DF80B30002B02D14FF07D433D
:1008F00045E0059B019A1A62059B009A5A62059B86
:1009000003F11000059B1A78059B51B21E4A0EF0A8
:10091000FDFC0346002B14BF01230023DBB2002B98
:1009200002D04FF054432AE09DF80B30022B09D03F
:10093000032B02D0012B08D00AE0012307930123E7
:10094000069308E00123069305E00123079302E0E4
:100950004FF0774313E0059B1033079A01211846A7
:100960000EF080FD059B1033069A022118460EF00A
:1009700079FD059B103318460EF0B4FD0023184690
:1009800009B05DF804FB00BF8108000800B585B020
:100990000190019B0393039B002B04D0039B103316
:1009A00018460EF0ADFD0023184605B05DF804FBB7
:1009B00000B585B001900B468DF80330019B029382
:1009C0009DF80330032B1BD801A252F823F000BF7F
:1009D000E1090008E9090008F1090008F90900081F
:1009E00000238DF80F300EE000238DF80F300AE061
:1009F00001238DF80F3006E002238DF80F3002E05E
:100A00004FF0774307E0029B9DF80F2011461846F0
:100A10000EF030FB0023184605B05DF804FB00BF64
:100A200000B585B001900B468DF80330019B039310
:100A3000039B002B02D14FF07D430FE09DF8033064
:100A4000012B05D1039B012118460EF017FB04E092
:100A5000039B002118460EF011FB0023184605B039
:100A60005DF804FB00B585B001900091019B0393F4
:100A7000039B002B02D14FF07D4305E0039B0099BF
:100A80001846FFF7ADFE0023184605B05DF804FBDD
:100A900082B00190019B002B02D14FF07D4308E012
:100AA000019B4FF480421A60019B4FF4C0421A60D0
:100AB0000023184602B070474FF400631846704791
:100AC00000B585B003900B4601928DF80B30019B69
:100AD000002B02D14FF07D4327E09DF80B30002B17
:100AE00008D1012103980EF06DFF03461A46019BC1
:100AF0001A6012E003980FF03BF903461A46019B77
:100B00001A60019B1B68002B07D0019B1B689DF896
:100B10000B10039A18460FF096F9019B1B68002BE7
:100B200002D14FF07A4300E00023184605B05DF88B
:100B300004FB00BF84B00190019B03F00703039303
:100B40000B4BDB680293029A4FF6FF0313400293AC
:100B5000039B1A02029B134343F0BF6343F4003329
:100B60000293034A029BD36000BF04B0704700BFEA
:100B700000ED00E082B0034600918DF807309DF94A
:100B80000730002B0CDA0D499DF8073003F00F03F6
:100B9000043B009AD2B21201D2B20B441A7609E099
:100BA00007499DF90730009AD2B21201D2B20B4424
:100BB00083F8002300BF02B0704700BF00ED00E0E3
:100BC00000E100E000B583B001900198FFF7B2FFAB
:100BD000BFF36F8F00BF03B05DF804FB00B583B0B7
:100BE000034600918DF807309DF9073000991846AB
:100BF000FFF7C0FFBFF36F8F00BF03B05DF804FBCA
:100C000010B586B001900D4B1B68002B12D0019BD4
:100C10000593059B002B0DD00EF06CFD03464FF0A5
:100C20000004CDE90234054B1968059B1868DDE91D
:100C30000223884700BF06B010BD00BF840D00200E
:100C400010B582B001900EF055FD03464FF0000440
:100C50001846214602B010BD10B483B00190044B79
:100C60004FF000041846214603B05DF8044B70476E
:100C700040420F0000B587B003900291CDE90023F8
:100C8000089B002B02D14FF07D431BE0102000F0A9
:100C900001FD0590059B002B02D14FF07A4311E036
:100CA0000A4A039B13600EF013FD094B1B680949A8
:100CB00018460EF0E1FD059B029A1A60089B059A02
:100CC0001A600023184607B05DF804FB840D00206D
:100CD000880D0020010C000830B587B00390CDE9E5
:100CE0000023039B0593059B002B05D0DDE9003411
:100CF000012C08BF002B02D34FF07D4324E0DDE937
:100D00000034002C08BF022B05D24FF002034FF035
:100D10000004CDE9003400BF0D4B1A68059B043375
:100D2000194610460EF0FCFD094B1C68059B1D1D65
:100D30000EF0E0FC0246009B1A44039B2946204625
:100D40000EF0CAFD00BF0023184607B030BD00BF3B
:100D5000880D002000B583B001900091019B012B0C
:100D600009D1009B4FF6FF72934204D10EF0FCFDB7
:100D70000246034B1A6000BF03B05DF804FB00BFDE
:100D8000880D002008B54FF6FF710120FFF7E2FF44
:100D900008BD00BF014B1B681846704710E000E01B
:100DA00082B00190024A019B136000BF02B07047FD
:100DB00010E000E082B001900549054B5A68019BA4
:100DC00023F07F4313434B6000BF02B0704700BF66
:100DD00010E000E082B001900549054B9A68019B44
:100DE00023F07F4313438B6000BF02B0704700BF06
:100DF00010E000E0014BDB681846704710E000E0AF
:100E00004DF804ED00F0BCFB5DF804EB704700BF4B
:100E100000B587B003900291029A05AB00930023BE
:100E20000021039814F0EAF8059B184607B05DF816
:100E300004FB00BF00B587B0059004910392049AAB
:100E400003AB009300230021059814F0FDF800BFC8
:100E500007B05DF804FB00BF00B583B00346009106
:100E60008DF80730009800F009F8034618460EF098
:100E700087FF00BF03B05DF804FB00BF84B00190A2
:100E8000019B083B0393039B184604B0704700BFC7
:100E900010B588B00346049103928DF817309DF881
:100EA000173023F0030307939DF8173003F0030373
:100EB000012B08D0022B0BD0002B0ED1079B43F047
:100EC000010307930BE0079B43F00603079306E03B
:100ED000079B43F00203079301E00EF061FD049BC2
:100EE0001A460C210398FFF7A5FF079BD8B2049B75
:100EF000D3E90034049A0399019100921A462346DB
:100F000000F0ECFD03468DF81B309DF81B30082BDC
:100F100003D10399049814F0E7FD9DF81B3018469F
:100F200008B010BD10B586B00390CDE90023602154
:100F300001200EF047FD03460593059B03F10802CF
:100F4000DDE90034C2E90034059B054A1A61059BBE
:100F5000039A1A60059B0833184606B010BD00BFFF
:100F6000590E000800B583B00190019B1846FFF7A9
:100F700085FF03461B68184603B05DF804FB00BFFD
:100F800000B583B00190019B0F211846FFF740FF89
:100F9000034623F00103184603B05DF804FB00BFCD
:100FA00000B583B00190019B184614F0B7FD0346CD
:100FB000184603B05DF804FB00B583B00190019BB7
:100FC000184614F0A5FD0346184603B05DF804FB6F
:100FD00000B583B00190019B184614F0ADFB0EF0F4
:100FE000DFFC00BF00B587B003900291019200932F
:100FF000039B05930023019A19460598FFF71AFFF2
:101000000123009A19460598FFF714FF0F21059850
:10101000FFF7FEFE034603F00102029B13431A464C
:101020000F210598FFF706FF00BF07B05DF804FB2E
:1010300008B50EF0B5FC00BF80B500F011F810F057
:10104000FF0F02D1FFF720FAFCE700F010F810F0D4
:10105000FF0F02D0172000F011F8182000F00EF852
:1010600080B5FFF74FFB012818BF002080BD80B579
:10107000FFF756FB00F00200400880BD80B5034931
:1010800079448866FFF76EFB80BDC0460CF8FF17F9
:1010900080B500F001F880BDB0B50546FFF73AFB1A
:1010A0000446274821467844083003F055FFFFF7EF
:1010B0003DFB014623487844083003F04DFF2248A9
:1010C00029687844083003F047FF14F0100F04D06B
:1010D0001E487844083003F0CBFE14F0080F04D00B
:1010E0001B487844083003F0C3FE14F0020F04D00C
:1010F00018487844083003F0BBFE14F0010F04D008
:1011000015487844083003F0B3FE03F010FF10F0E8
:10111000FF0F0CD0FFF70AFB014611487844083056
:1011200003F01AFFFFF702FBFFF71CFBB0BD0B48F3
:101130007844083003F09CFE2046FFF713FBB0BD57
:1011400036F8010056F801007AF801009AF801001B
:10115000EAF801003AF901006AF90100CCF901004E
:10116000A0F9010080B500F001F880BDB0B50546DA
:10117000FFF7D0FA04461F4821467844083003F0B0
:10118000EBFE1D4829687844083003F0E5FE14F0B2
:10119000007F04D019487844083003F069FE14F049
:1011A000807F04D016487844083003F061FE14F4C0
:1011B000802F04D013487844083003F059FE14F40B
:1011C000002F04D010487844083003F051FE14F486
:1011D000003F04D00D487844083003F049FE14F471
:1011E000803F08BFB0BD0A487844083003F040FE95
:1011F000B0BDC046D2F9010026FA010096FB0100FD
:10120000B6FB0100D6FB010016FC010036FC010014
:1012100064FC010080B500F001F880BDB0B5054662
:10122000FFF778FA0446264821467844083003F050
:1012300093FEFFF781FA014622487844083003F014
:101240008BFE214829687844083003F085FE14F4A9
:10125000805F04D01D487844083003F009FE14F480
:10126000006F04D01A487844083003F001FE14F4EB
:10127000807F04D017487844083003F0F9FD03F06C
:101280005DFE10F0FF0F11D003F05FFE10F0FF0FB6
:101290000CD0FFF751FA014610487844083003F0AB
:1012A0005BFEFFF749FAFFF75DFAB0BD0A487844E4
:1012B000083003F0DDFD2046FFF754FAB0BDC0460C
:1012C00022F9010042F9010066F9010086F90100E6
:1012D000B6F90100E6F901001EFA0100F2F9010079
:1012E00080B504F02DF904F04DF908487844406EBB
:1012F00004F056F904F06EF904F076F90620FFF7D1
:101300004FF803487844083003F0CEFBA0F5FF17F0
:1013100048F7FF1710B50848784400F1080407485B
:10132000784400F10801204600F036FE0146002016
:101330000860204600F08EFE78F7FF173CCC0100D5
:101340001C4902687944C1F8F4204268C1F8F820C9
:101350008268C1F8FC20C268C1F800210269C1F8A6
:1013600004214269C1F808218269C1F80C21C269CF
:10137000C1F81021026AC1F81421426AC1F818218B
:10138000826AC1F81C21C26AC1F82021026BC1F82F
:101390002421426BC1F82821826BC1F82C21C26B39
:1013A000C1F83021026CC1F83421406CC1F8380119
:1013B0007047C04648F5FF1780B5084979444A6A26
:1013C00007497944002AD1F8A81118BF114600290D
:1013D00008BFFFF79FFF496800F03CFE90F6FF173B
:1013E000CAF4FF1780B5806902380FD00078113831
:1013F00003280DD8DFE800F00202020500F00CF827
:1014000080BDFFF761F8FFF79BFF80BDFFF782FF0C
:101410001620FFF733FEC04610B50B487844406AEB
:1014200000281CBF4469002C0CD0207C28210028F7
:1014300018BF6821A0680844FEF76CFFE068FFF75A
:1014400037F810BDFFF766FF30F6FF1770B5064698
:1014500001200D46FEF7A4FF0021002D044608BF21
:101460000121304600F010F805462046FEF798FFAF
:10147000284670BD2046FEF793FF024878440830A6
:10148000FFF79AFF14F6FF17B0B5114B7B44D3E971
:1014900009243AB15269CAB1117411F0FF0F016801
:1014A000C2E90201002C1CBF6569002D0ED0E8685E
:1014B000FEF7FEFF074821467844083003F083FC1E
:1014C00005487844C0F8A841A868B0BDFFF722FFDE
:1014D000C0F5FF1794F5FF17CAF3FF177047C04612
:1014E00010B582B00E487844816B0020019001A8AD
:1014F00003F058F9019C0CF00BFA02F00BFF0B48BB
:101500007844C0F8A84102B010BD02F003FF0548BE
:101510007844C0F8A841044878440830FFF74CFFED
:1015200066F5FF177CF3FF1778F5FF178CF3FF17AD
:1015300010B582B00E487844816B0020019001A85C
:1015400003F030F9019C0CF0E3F902F0E3FE0B48E4
:101550007844C0F8A84102B010BD02F0DBFE054897
:101560007844C0F8A841044878440830FFF724FFC5
:1015700016F5FF172CF3FF1728F5FF173CF3FF179D
:1015800010B50120FEF70CFF04460D487844416A6F
:10159000083000F01BF80B487844083000F038F8A9
:1015A0004FF0805000F058F82046FEF7F9FE10BDCD
:1015B0002046FEF7F5FE044878440830FFF7FCFEAD
:1015C000C0F4FF17B4F4FF17D8F4FF1710B50C469A
:1015D00001698C4208BF10BD4068B0B10068006866
:1015E00003F09CFB8CB1A268014671B1086820B180
:1015F0008B6853B19B689342F6DA606A03F0B7FBDD
:10160000E06920F02000E06110BDFFF783FEC046D6
:10161000B0B505460120FEF7C3FE0446686878B100
:10162000D0E90021106803F04CFB002808BF2869AE
:101630002862284603F0FFFA2046FEF7B1FEB0BD4F
:10164000FFF768FE2046FEF7ABFE024878440830FC
:10165000FFF7B2FE44F4FF1780B54FF6FF7100228A
:10166000C6F2BF11084208BF012212B1FEF7F0FE18
:1016700080BD0920FFF702FD80B548220023B2EBB0
:10168000810F08BF012313B1FFF75AFE80BD13205D
:10169000FFF7F4FCF0B581B02E492F4A0F3020F04F
:1016A00007052E4879447A44496AD2F8A84178441B
:1016B0000830002918BF0C46002C214614BFA7682B
:1016C000022700F05FF8264829467844083000F0E9
:1016D00079F8064623487844D0F8B00186421AD1FA
:1016E000142000F0D5F820487844083000F0FEF8C7
:1016F0001E4829467844083000F064F806461C4825
:101700007844D0F8B001864205D11A4800217844C7
:10171000083000F065F91A4821467844083000F096
:1017200091F8002C1EBFA068B842A76006F108001F
:1017300001B0F0BD104821467844083000F082F82E
:101740001CB1A068B84218BFA7600C4878440830A4
:10175000FFF732FEA8F3FF17E6F1FF17F2F3FF17CA
:10176000F2F3FF17B6F1FF1714F4FF17C8F3FF17D2
:101770008CF1FF17EEF3FF1768F3FF1744F3FF1721
:1017800086F3FF17B0B50D460446002D08BFB0BD67
:1017900008E0AA688B689342B8BF8A60FEF700FE33
:1017A00002F01EFD0120FEF7FBFD216829B1A942D0
:1017B000EFD161680131616000E02560FEF7F0FD66
:1017C000B0BDC0462DE9F0410C46804606F024FD30
:1017D00010F0FF0F2CD0D8F8080048B1214606F0D1
:1017E000EDFB064614487844D0F8B001864211D18A
:1017F000134DD8F800707D4400E03F688FB1384643
:10180000214606F0DBFB0646D5F8B0018642F4D04F
:10181000C8F808703046214604F0CAF83046BDE8E2
:10182000F08106487844D0F8B0613046BDE8F081D8
:101830000D20FFF723FCC046A6F0FF1768F0FF1746
:1018400096F0FF17002908BF704702688A4208D146
:1018500041680129A2BF0139416070470021016040
:10186000704710B50848784400F1080407487844E8
:1018700000F10801204600F08FFB014600200860BF
:10188000204600F0E7FBC0462AF2FF170ECB01000E
:1018900010B5C0B2113803280FD8DFE800F00208F5
:1018A000050BFEF7F5FD10BDFEF7FAFD10BDFEF7C6
:1018B000F3FD10BDFEF7F8FD10BD0948784400F1B6
:1018C00008040848784400F10801204600F064FB51
:1018D00001460548784408300860204600F0BAFB0D
:1018E000D4F1FF1788C7010098EF01002DE9F041FE
:1018F00005463448344978447944406AD1F8A841CF
:10190000002818BF04463148002C214614BFD4F8E3
:1019100008804FF0020878440830FFF733FF0120B9
:10192000FEF73EFD0746284604F0F4F804F072F98D
:1019300006463846FEF734FD2848214678440830EC
:10194000FFF780FF002C1EBFA0684045C4F8088048
:101950006C684FF0000504E049688969096B8847A5
:1019600001355CB1206885420ADA0ED204EB8500AD
:101970004068002818BFB0F10801EDD1FFF7CAFC9C
:1019800004F05AF93046BDE8F08100F02FFE01293D
:1019900007D13846FEF704FD0D4878440830FFF7BC
:1019A0000BFD0C48214678440830FFF74BFF24B16B
:1019B000A068404518BFC4F808800748784408303C
:1019C000FFF7FAFC56F1FF1794EFFF178AF1FF17A4
:1019D000F6F0FF17FAF0FF17D4F0FF1764F1FF17C6
:1019E00080B5816802487844083000F033FBC04677
:1019F000AAF0FF1709497944D1F8B011884208BF0D
:101A0000704780B50649794401F10802A0F1080148
:101A1000104600F007F8BDE88040704796EEFF17CB
:101A2000B6F0FF17F0B581B0064625480D4678445C
:101A3000D0F8B001854241D0224823497844794406
:101A4000406AD1F8A841002818BF04461F48002C5E
:101A5000214614BFA768022778440830FFF792FE9A
:101A6000366806B3D6E902018D424FF0000138BF57
:101A70000121A84288BF00210029F1D03046294623
:101A800006F0BAFAECE71348214678440830FFF72D
:101A9000D9FE1CB1A068B84218BFA7600E487844B0
:101AA0000830FFF789FC0A48214678440830FFF7E0
:101AB000C9FE1CB1A068B84218BFA76001B0F0BD54
:101AC0005EEEFF1710F0FF174EEEFF1748F0FF17FE
:101AD000F6EFFF1716F0FF17F2EFFF172DE9F04FA3
:101AE0008DB0044645F24D310020C5F24641CDE9A6
:101AF0000B00CDE9090042F2433058405140084301
:101B000040F0D280179E3046FFF74AFA0C9000282A
:101B100000F0CA803046FFF733FA05463046FFF73B
:101B20004BFA0C9A00276B1E67F100071D1A67F12C
:101B3000000B12F8011B0C92FF2903D00CA800F037
:101B4000E7F80C9A12F8011B06910C92FF2907D0B6
:101B500002900CA8049400F026F90C9A104405E0B9
:101B60000290674804947844D0F8B001059012F8C8
:101B7000017B0CA80C9200F016F90C9B00220DF1D1
:101B80002C09002118440B9308905E487844D0F843
:101B9000B001039000E00B9B089883423BD248467B
:101BA000394600F0B5F806460C4600204FF0000A12
:101BB0003946AE4288BF01205C4588BF4FF0010A1C
:101BC00008BF8246484600F0A3F816EB00084846D6
:101BD0004C41394600F09CF8079048460E4600F00C
:101BE000E2F80246BAF1000FD5D145454FF00000AA
:101BF0004FF0000338BF0120A34538BF012308BFC1
:101C00000346002BC7D007980D463146144600F016
:101C1000E6F8014602E00D46039914463A48049F4F
:101C20007844D0F8B00181423ED054EA05003FD05C
:101C3000029801EB000A08982044441E1698FFF70A
:101C400091F90A94814600260AAD09AC07F0040810
:101C500003E00A99013608440A90284600F0CBF8C0
:101C600050EA010213D0DDE9053200F0FBF801462D
:101C700019B1484600F016F978B117F0010F26D1D6
:101C800017F0040F27D117F0080F06D136E017F030
:101C9000020F02D0B8F1000F23D00A980990204615
:101CA00000F0A9F80143D4D108200DB0BDE8F08FB1
:101CB00017F0040F4FF008004FF0080108BF06208E
:101CC00017F0020F08BF08460DB0BDE8F08F0620E0
:101CD0000DB0BDE8F08F701CC11700F080F803460E
:101CE00003E00A487844D0F8B0311798169A514664
:101CF000FFF778F907200DB0BDE8F08FFFF798F9EE
:101D000026EDFF1700EDFF176CECFF17A8EBFF1790
:101D1000B0B5CDB20446FF2D02BF00200021B0BDFA
:101D200005F00F000C283AD8DFE800F007190C077F
:101D300013393939391D0C071300216869B351F87B
:101D4000040B03E0216841B331F8020B216000214C
:101D50000CE022680AB3F2E80201226006E02046A5
:101D600000F021F802E0204600F045F815F070027E
:101D70000CD0D2B2102A14D150EA010204D0226849
:101D8000801841F1000101E00020002115F0800FD2
:101D900008BFB0BD08B103C8B0BDFFF7BBFAFFF77D
:101DA00047F9FFF745F9B0B502684FF0000C002184
:101DB000002302F1010E03F03F040733C0F800E0F6
:101DC000127802F07F0512F0800F724605FA04F4D3
:101DD00041EAE4714CEA040CEBD16046B0BD80B539
:101DE00082B0024600200B46019001A801F09FFE40
:101DF000019802B080BDB0B58446002000214FF0AC
:101E0000000EDCF800305C1C0EF03F050EF1070EF2
:101E1000CCF800401A7802F07F0312F0800F03FA2A
:101E200005F341EAE37140EA03002346EBD112F0E7
:101E3000400F16D0BEF1400FA8BFB0BD0EF03F025C
:101E40004FF0FF35C2F12004A2F1200305FA02F29F
:101E500065FA04F4002B40EA0200A8BF05FA03F477
:101E60002143B0BDB0B5054610461C4606F090FCB7
:101E70000A4A05FB104001687A44D2F8B021914229
:101E800004BF0020B0BD401806D005490830794491
:101E9000083100F08DFBB0BDFFF73CFA14EAFF17E4
:101EA000BEC4010010B504468CB1B4F1080018BFDF
:101EB00000290ED04268914204D00846114603F032
:101EC000E3F800E00120C0B2002808BF0446204625
:101ED00010BDFFF71FFA80B51820FFF7CFF8C046F6
:101EE000F0B581B0064615460C4686B1B4B1304611
:101EF00000F0CEF80746204600F0CAF80346304608
:101F000039462246009500F0EFF801B0F0BD0E48CA
:101F1000784400F108040D48784405E00848784406
:101F200000F108040748784400F10801204600F059
:101F300033F8014600200860204600F08BF8C046C8
:101F400072EBFF1756BB010080EBFF1764BB01006B
:101F500080B5B0F1080104D04968896949698847AA
:101F600080BDFFF7D7F90022884208BF0122104642
:101F7000704780B500F0DEFE80BD704780B5D0E9C7
:101F800000320448784400F10801184601F062FC70
:101F900080BDC04608F401002DE9F0410E463046F0
:101FA00006F012FC05462548254978447944406AE4
:101FB000D1F8A841002818BF04462248002C214629
:101FC00014BFD4F808804FF0020878440830FFF7B7
:101FD000D9FB3046294606F0FDFB0746CFB1082065
:101FE0002146C7E900061A4878440830FFF72AFC62
:101FF000002C07F108061EBFA0684045C4F8088001
:10200000D6B17819811B30460DF0D1FC3046BDE8C1
:10201000F081FFF77FF90C48214678440830FFF73C
:1020200011FC24B1A068404518BFC4F808800748D7
:1020300078440830FFF7C0F9FFF76CF9A2EAFF1700
:10204000E0E8FF17D6EAFF1786EAFF1760EAFF17F6
:10205000B8EAFF1780B50C487844426A0B487844C8
:10206000002AD0F8A80118BF104658B145F24D32E9
:102070004160084642F24333C5F24642FEF752FF42
:10208000FEF7A6FFFFF746F9F4E9FF172EE8FF1762
:1020900010B508381CBF406800281ED0846810485E
:1020A000784400F10801204600F07AF900281CBFAE
:1020B000002010BD0B48784400F10801204600F0D4
:1020C00077FA00281CBFC06A002806D001680029E2
:1020D0001CBF406810BD00F089FAFFF71BF9C0462D
:1020E0006CBA010086BA01002DE9F0411C460029B6
:1020F0001546A8BF002C4FDBDDF81880B8F1FF3F74
:102100004ADD48B3036801EB08029A4226DC1DB39E
:102110002B6804EB08029A4227DCB0F1080218BFD2
:10212000B5F1080318D057685A68974224D100F0D7
:1021300059F806462846214600F054F801468E42DA
:1021400008BFBDE8F0813FB1786808FB00F2304677
:1021500000F056F8BDE8F081FFF7DCF81C48784441
:1021600000F108041B4878441CE01748784400F14B
:1021700008041648784415E01048784400F1080433
:102180000F48784400F108012046FFF705FF01469B
:102190000C48784408300CE00F48784400F10804FB
:1021A0000E48784400F108012046FFF7F5FE01468D
:1021B000002008602046FFF74DFFC04616E9FF17D4
:1021C0005AB90100EAE5010024E9FF1738B9010016
:1021D00032E9FF1746B90100F6E8FF170AB9010016
:1021E00000687047B0F108021CBF5268002A04D092
:1021F0005268043001FB0200704780B5FFF78AF88F
:1022000080B503460020B2F1FF3FC8BF012068B18E
:102210008B429CBF9818814204D3084619460DF0A2
:10222000C9FB80BD184607F0CBF980BD0820FEF73A
:1022300025FFC046B0B51249044610487844794499
:1022400008300831FFF7A8FE05460E4810227844F2
:1022500000F10801284608F0ADFF2046294601227A
:10226000002300F071F80848784400F1080128467E
:1022700007F070FB284601F071F8B0BD54E8FF1775
:10228000DEBA0100BE02020084FB010080B5B0F19D
:10229000080205D05268926953690022984780BDB0
:1022A000FFF738F880B5406A002818BFB0F1080180
:1022B00004D049688969C968884780BDFFF72AF852
:1022C00070B505460E480E461446784400F10801E4
:1022D0003046FFF7E7FD002804BF002070BD094825
:1022E000784400F10801304603F070F830B16A6AB2
:1022F000416A1046224609F0C1FC70BDFFF70AF89A
:10230000B2BD01009CBD0100406A7047704780B5B6
:10231000406A002818BFB0F1080104D049688969F3
:10232000096A884780BDFEF7F5FF80B5406A00283E
:1023300018BFB0F1080104D049688969496A884723
:1023400080BDFEF7E7FFC04610B5406A0C46002886
:1023500018BFB0F108010ED049688969D1F828C0CA
:102360002146E0473CB10548784400F10801204689
:1023700007F0F0FA10BDFEF7CDFFC04604020200E0
:1023800080B50648784400F108020846114600F07E
:1023900007F8002818BF012080BDC04688B701009B
:1023A000002808BF7047B0F1080204D052688A4282
:1023B00018BF0020704780B5FEF7ACFFB0B51249DA
:1023C000044610487844794408300831FFF7E4FDAA
:1023D00005460E481022784400F10801284608F00E
:1023E000E9FE204629460122002300F04DF8084866
:1023F000784400F10801284607F0ACFA284600F0BE
:10240000ADFFB0BDCCE6FF1756B9010026000200B3
:10241000FCF9010080B5002200F006F880BD80B50F
:10242000FFF740FF80BDC04670B5064614480D4614
:102430001446784400F108012846FFF7B1FFD0B1F7
:102440001048784400F10801284600F0B1F8A0B126
:10245000B16A826A91421CBF002070BDC16AF06AF5
:1024600009F080FB10F0FF0F05D0304629462246C8
:10247000FFF726FF70BD002070BDFEF74BFFC04682
:102480000AB70100FAB601002DE9F04F81B0054608
:102490008B46686A002818BFB0F1080156D0496819
:1024A00089698F6A5946B847BBF1000F4ED0294859
:1024B000784400F10801584607F04CFA27484FF0DD
:1024C000000904260024784400F1080A24487844CE
:1024D00000F1080801E008360134A86AE1178442D7
:1024E0004FF0000028BF0120B1F1FF3F4FF0000185
:1024F000C8BF0121B9EBE47F08BF0146E1B91CB1B7
:102500005846514607F026FAE86AF8B101688C424D
:10251000E1DA1DD281593044476851EA0700DAD028
:10252000584608F0D3FF5846414607F013FA58467C
:10253000394608F0CBFFCEE70748784400F10801A0
:10254000584607F007FA01B0BDE8F08FFEF7E2FE4B
:1025500000F04CF8ACFF010062FF010036F601000C
:10256000AEFF0100B0B504461048784400F10802FF
:1025700008461146FFF714FF0021054600F0C2FB94
:1025800010F0FF0F0DD175B1A06AA96A884208D179
:10259000E96AE06A09F0E6FAC0B2002818BF012033
:1025A000B0BD0020B0BDFEF7B5FEC046D2B50100FB
:1025B00010B5A8B1FFF7F4FE002818BF10BD0948F8
:1025C000784400F108040848784400F108012046E6
:1025D000FFF7E2FC0146002008602046FFF73AFDC5
:1025E000002010BDD0E4FF1754BD010010B508480D
:1025F000784400F108040748784400F108012046B7
:10260000FFF7CAFC0146002008602046FFF722FDC4
:10261000A0E4FF17B4B40100B0B505460E480C465F
:10262000784400F108012046FFF7BAFE002804BFF5
:102630000020B0BD09482D78784400F108012046FB
:10264000FFF7B6FF28B1017800208D4208BF0120B6
:10265000B0BDFEF75FFEC0464CB5010034B50100C9
:1026600010B5047800F012F80146204600F03CF85E
:1026700010BD00787047B0B505780C4600F006F83C
:1026800002462846214600F04BF8B0BD80B51148FF
:10269000114978447944406AD1F8A811002818BF3C
:1026A0000146A9B10D487844D0F8880180B1017D78
:1026B00009B9816851B90A497944083108F070FFB5
:1026C000084979440831FFF773FF0146084680BD89
:1026D000FEF720FEBAE3FF17F8E1FF17E6E1FF1768
:1026E000B8480100CAC1010070B50C460B49054647
:1026F00009487844794408300831FFF74DFC2946F1
:10270000064607F085F9304647214FF0FF32234651
:1027100007F03AFA70BDC0469EE3FF1758BF0100AC
:102720002DE9F04182B00E460546002001A99046F1
:102730000190304607F088FB87B2592F06D3642FEB
:102740002DD0672F12D0782F13D106E0582F04D048
:10275000472F0BD0442F0CD121E0019AA7F1210182
:10276000284607F01FFC02B0BDE8F0810198002860
:1027700015DD164816497844794408300831FFF7CA
:102780000BFC2946044607F043F9A7B1019A2046FD
:102790003946434607F0F8F902B0BDE8F081B8F1D8
:1027A000000F10D0D8F810200199284607F09AFBA6
:1027B00002B0BDE8F08120463146424607F01CFCDD
:1027C00002B0BDE8F081FEF7A5FDC0461AE3FF1791
:1027D000D4BE0100008840EA00407047B0B505460D
:1027E0000E480C46784400F108012046FFF7D8FD5A
:1027F000002804BF0020B0BD09482D88784400F1AE
:1028000008012046FFF7D4FE28B1018800208D4240
:1028100008BF0120B0BDFEF77DFDC046B8B3010082
:10282000A0B3010080B5008800F001F880BDB0B50C
:102830000446012000F006F82146054600F018F88D
:102840002846B0BD10B5044607480849621C7844C4
:1028500079440830083100F08DFC00281CBF44602A
:1028600010BDFEF757FDC04642E2FF173CB4010021
:102870004268002A08DD08300122013A002AB8BF68
:10288000704720F8021BF8E780B5FFF7AFFEC0469F
:10289000B0B50D4604469DB12046294600F024F807
:1028A00010F0FF0F0CD00F48784400F108012846C3
:1028B000FFF7F8FA054600F038F810F0FF0F01D0E6
:1028C0000020B0BD5DB121682A680020914218BF88
:1028D000B0BD696862688A4208BF0120B0BDFEF7DA
:1028E00019FDC04624B30100002818BFB0F108004C
:1028F0000BD0002918BFB1F1080106D04268496821
:1029000000208A4208BF0120704780B5FEF702FD13
:1029100080B500F0E1F910B100F0E8F980BDFEF7F4
:10292000F9FC406870470068704780B5002804BF14
:10293000012080BDB0F1080105D0496889698A6825
:102940000021904780BDFEF7E5FCC0E9001270470A
:1029500080B5B0F1080104D04968896949688847A1
:1029600080BDFEF7D7FCC046B0B504460F480D4603
:10297000784400F108012846FFF712FD002804BF43
:102980000020B0BD0A48784400F108012846FFF74E
:102990000FFE40B1B0F90010B4F9002000208A42C7
:1029A00008BF0120B0BDFEF7B5FCC0468CB20100E7
:1029B00076B2010010B5B0F90040FFF767FE01469E
:1029C0002046FFF791FE10BD008840EA00407047A6
:1029D000B0B50C460546FFF759FE0246284621468B
:1029E00000F001F8B0BD70B506460D461446B6F9C4
:1029F000001088B2B1F1FF3F18DCBDB16968012950
:102A000014DB2846002100F017F880B2582806D0C1
:102A10002846002100F010F880B2782805D13088CF
:102A20002946224600F02AF870BD308800B22946B7
:102A30002246FFF775FE70BDB1F1FF3F08DD426829
:102A4000914205DA002818BF083030F811007047AD
:102A500010B50848784400F108040748784400F1AC
:102A600008012046FFF798FA01460020086020463A
:102A7000FFF7F0FA3CE0FF1750B001002DE9F041FC
:102A800082B00D460646002001A9904601902846D6
:102A900007F0DAF987B2592F06D3642F2DD0672FAC
:102AA00012D0782F13D106E0582F04D0472F0BD027
:102AB000442F0CD121E0019AA7F12101304607F003
:102AC00071FA02B0BDE8F0810198002815DD1248C6
:102AD00012497844794408300831FFF75DFA3146ED
:102AE000044607F003F87FB1019A20463946434671
:102AF00007F04AF802B0BDE8F0810199304607F0CE
:102B00002FFD02B0BDE8F08120462946424607F07D
:102B100073FA02B0BDE8F081BEDFFF1778BB010099
:102B2000B0B504460E480D46784400F10801284629
:102B3000FFF736FC002804BF0020B0BD09487844E8
:102B400000F108012846FFF733FD30B10168226823
:102B500000208A4208BF0120B0BDFEF7DBFBC04663
:102B600004B10100EEB0010010B50468FFF78EFD5E
:102B700001462046FFF7B8FD10BD0068704710B54C
:102B80000468FFF783FD01462046FFF7ADFD10BD49
:102B9000B0B505680C46FFF779FD02462846214688
:102BA000FFF7BEFDB0BDC046B0B50D46044605B347
:102BB00020462946FFF798FE10F0FF0F19D00F4866
:102BC000784400F108012846FFF76CF90546FFF745
:102BD000ACFE10F0FF0F0CD16DB1A068A96800F039
:102BE00045F810F0FF0F04D020462946FFF750FEAD
:102BF000B0BD0020B0BDFEF78DFBC0469CB001000B
:102C0000F0B581B08468CCB1251D0020002608E015
:102C100000EB401750688069C26808469047384406
:102C2000013621688E420BDA0CD255F826100029A5
:102C300018BFB1F10802EBD1FEF76CFBFFF771FE94
:102C400001B0F0BDFFF7D2FC80B5816831B10A68F0
:102C5000501E904208D201EB8000406800281CBF43
:102C6000006880BDFEF756FBFFF7C0FC2DE9F0437E
:102C700081B005460C46002D14BFD5F800804FF0FA
:102C80000008002C14BF20680020804518D105F1F1
:102C90000409261D002700E00137474514DABDB1BD
:102CA0002868874216D29CB12068874212D259F810
:102CB000270056F8271000F025F810F0FF0FEBD191
:102CC000002001B0BDE8F083012001B0BDE8F08331
:102CD000FEF720FBFFF78AFC08381CBF406800287D
:102CE00001D00069704780B5FEF714FB80B500681D
:102CF00000281CBF8068002802D000F0C9F880BD01
:102D0000FEF708FB80B5884202BF0122104680BD55
:102D100000284FF0000218BF002907D0B0F10802C8
:102D200006D052689269926890470246104680BD6C
:102D3000FEF7F0FA2DE9F0410546B5F108067AD024
:102D40003068012200F44071B2EB112F47D0080A1D
:102D500090BB04F0C9FD0746414842497844794494
:102D6000406AD1F8A841002818BF0446002C14BFBF
:102D7000D4F808804FF00208002F5CD03846214676
:102D8000FEF700FD307800F0FE01002004294FF02E
:102D9000000108BF012129B9316801F44071B0EB8D
:102DA000112F30D038462146FEF74CFD24B1A068E3
:102DB000404518BFC4F80880002D284618BF0120E0
:102DC000D8B33068022200F44071B2EB112F0FD15A
:102DD0004FF60041C0F2FF010840800A0BE04FF6B9
:102DE0000041C0F2FF010840850A2846BDE8F08195
:102DF000284604F0A9FD04F085FD054604F0A2FD77
:102E00002846BDE8F081184878444569691C41614D
:102E1000304601212A4601F00DFD38462146FEF7D5
:102E200011FD002C1CBFA0684045DED02846C4F828
:102E30000880BDE8F081FEF76DFA0720FEF71EF965
:102E400038462146FEF7FEFC24B1A068404518BF75
:102E5000C4F80880054878440830FEF7ADFAC0464B
:102E6000F0DCFF172EDBFF17B4DDFF173ADCFF178E
:102E700000687047704780B5006800281CBF8068F4
:102E8000002802D000F004F880BDFEF743FAC046E7
:102E900070B5104906460E48784479440830083128
:102EA000FFF77AF81021054600F080FAB6F1080025
:102EB0000BD040682946002200238069846A30468E
:102EC000A047284600F04AFA70BDFEF723FAC04634
:102ED000F8DBFF1782AE010080B5FFF707FF80BD6A
:102EE000B0B50B49044609487844794408300831A4
:102EF000FFF752F81021054600F058FAA16828465D
:102F000002F09AFA284600F029FAB0BDA8DBFF17B4
:102F100032AE0100002818BF00291AD0D0F804C032
:102F20004B689C451CBF002070470831083003E007
:102F3000ACF1020C04310430BCF1010F03DB0B686F
:102F400002689A42F4D00020BCF1010FB8BF012002
:102F5000704780B5FEF7DEF910B50446084878449E
:102F600000F1080208461146FFF71AFA014619B99E
:102F7000002C1CBF002010BD2046FFF7CBFF10BD6A
:102F80002EAD0100704780B5D0F804E041F2055C39
:102F90000028C1F2055C18BF0830634609E04268AA
:102FA0000CEB4C11AEF1040E083001EBEC6181EA40
:102FB000020CBEF1010FA1BF03EB431101EBE36172
:102FC00003684B40A8BFBEF1020FE8DC48F665304D
:102FD000C5F658500CFB003080BD02468A4204BF43
:102FE00001207047002A4FF0000018BF002905D0CB
:102FF00080B51046FFF78EFFBDE880407047C046A1
:1030000070B505460C4668680028A4BF001BB0F1E7
:10301000FF3F1CDDB4F1FF3F20DD1A481A4922466C
:10302000784479440830083100F038F80646012C1D
:103030000BDB3068002802D021D0311D00E00021D8
:1030400005F10800224600F08DF8304670BD1148A9
:10305000784400F108041048784405E00B487844AF
:1030600000F108040A48784400F108012046FEF700
:1030700093FF0146002008602046FEF7EBFFFFF7B4
:10308000B5FAC04670DAFF17CAAC010032DAFF1792
:1030900056AC010040DAFF1764AC01002DE9F043A3
:1030A00081B00F4616463846314605F0CBFB8046C8
:1030B0002648274978447944406AD1F8A841002835
:1030C00018BF04462348002C214614BFD4F80890AA
:1030D0004FF0020978440830FEF754FB3846414669
:1030E00005F078FB0546002D1EBF0820C5E9000746
:1030F00015F1080716D01A4821463E60784408307A
:10310000FEF7A0FB24B1A068484518BFC4F808909A
:1031100005EB0801381D091A0CF049FC384601B0CE
:10312000BDE8F083FEF7F6F80B48214678440830F6
:10313000FEF788FB24B1A068484518BFC4F8089082
:10314000064878440830FEF737F9C04698D9FF178B
:10315000D6D7FF17CCD9FF1774D9FF174ED9FF1751
:10316000A4D9FF1780B503460846520019460CF053
:1031700021FC80BD2DE9F04381B00F46164638464C
:10318000314605F05FFB804626482749784479445C
:10319000406AD1F8A841002818BF04462348002CF3
:1031A000214614BFD4F808904FF002097844083043
:1031B000FEF7E8FA3846414605F00CFB0546002DBF
:1031C0001EBF0820C5E9000715F1080717D01A48E7
:1031D00021463E6078440830FEF734FB24B1A068F5
:1031E000484518BFC4F8089005EB080107F108002E
:1031F000091A0CF0DCFB384601B0BDE8F083FEF79D
:1032000089F80B48214678440830FEF71BFB24B1AF
:10321000A068484518BFC4F80890064878440830AC
:10322000FEF7CAF8C0D8FF17FED6FF17F4D8FF176D
:103230009AD8FF1774D8FF17CCD8FF1710B5002AFB
:1032400018BF00280ED044685368641AA3420BDCF0
:1032500000EB410000F1080102F108001A46FFF7F7
:1032600081FF10BDFEF756F80848784400F10804C5
:103270000748784400F108012046FEF78DFE01461C
:10328000002008602046FEF7E5FEC04626D8FF175E
:103290003AA8010080B5B3F1FF3F1EDDD0F804C0AD
:1032A00063451ADC002A18DBC9B1D1F800E002EB53
:1032B000030CF44511DC012BB8BF80BD79B1D1F806
:1032C00000C0624509D200F1080C01EB42001A4629
:1032D00004306146FFF746FF80BDFFF787F9FEF730
:1032E00019F8C0462DE9F04105460C46002D18BFDF
:1032F000002C19D015481649D4F800806F6878441E
:10330000794408300831FEF747FE07EBC80106464E
:1033100000F04CF830462946224600F053F830467B
:1033200000F01CF8BDE8F0810A48784400F1080478
:103330000948784400F108012046FEF72DFE0146B9
:10334000002008602046FEF785FEC04692D7FF1792
:103350001CAA010066D7FF174AA70100B0B50546B1
:103360001048114978447944406AD1F8A8110028DE
:1033700018BF01462868AC68884205D17CB1D4E901
:1033800000014900814203DA204600F04FFAB0BD47
:10339000204600F044FB002028602046B0BDFDF729
:1033A000B9FFC046E8D6FF1726D5FF1780B50A46F5
:1033B00003497944D1F8441107F0FCFE80BDC046B2
:1033C000DAD4FF172DE9F04F89B00029049018BF17
:1033D000002A00F0178205924A6808461146FFF756
:1033E0000FFE0746002F00F0FA81D7F800804FF05B
:1033F000000A4FF0000BA8F101000690A8F10200AE
:103400000790381D0890DFF80C04784408300090CD
:1034100003E00498494607F067FF54465546424684
:1034200005E007EB4501681CA1F804B0054694428D
:103430002FDA3868844280F0D081089830F814B0D0
:103440000134BBF17D0F10D194420ADA386884420E
:1034500080F0C381089830F814007D2801D1013430
:1034600003E0164608F056F83246BBF17B0F0BD14D
:1034700094420DDA3868844280F0AF81089830F8C1
:1034800014007B2804D1013438688542C9D3A4E1F3
:10349000013C554508DD0498A5EB0A03154639465D
:1034A000524606F0C7F92A46944204BF09B0BDE867
:1034B000F08F601C90420DD03968884280F08D8179
:1034C00007EB4000B0F804B0BBF1300F02DBBBF1FA
:1034D000390F03DD154608F01DF82A46201D4FF070
:1034E000000882460798A51CA04205D13E46174613
:1034F00008F010F83A4637463868854280F06D810A
:1035000008EB88000FFA8BF101EB40000021A0F1DD
:10351000300807EB4400B0F808B00020BBF13A0FC8
:10352000B8BF0120BBF12F0FC8BF0121014208D055
:1035300044F240210AF101000134C0F20F01884534
:10354000CFDB05980068804502DB4AE10AF1010AF9
:10355000AAF10209914508DA3868814580F03D8179
:1035600037F81AB0BBF1200FF0D01FFA8BF02C28DF
:1035700030D109F1030000E00130A0F1020A9245C8
:1035800007DA39688A4580F0288137F81010202939
:10359000F2D0924503D1144607F0BCFF22463868AA
:1035A000824580F01A81089830F81AB0BBF12D0FCF
:1035B00015D10AF1010A924503D1144607F0AAFF7A
:1035C00022463868824580F00881089830F81AB0A1
:1035D000012005E000200390002002903DE0002043
:1035E0000390BBF1300F02DBBBF1390F03DD144652
:1035F00007F090FF2246002306981D460AF10109B4
:10360000504503D1144607F085FF224638688145AE
:1036100080F0E38005EB85000FFA8BF101EB4000B1
:103620000021A0F1300307EB4A00B0F806B00020FB
:10363000BBF13A0FB8BF0120BBF12F0FC8BF01216A
:10364000014206D044F24020CA46C0F20F00834235
:10365000D2DB029301E009F1010991450ADA3868E9
:10366000814580F0BA8007EB4900B0F804B0BBF1A7
:10367000200FF0D005980068804580F0AE80059856
:1036800000EB8800D0F804A01FFA8BF03A2840D154
:1036900009F1030509F10109CDF8049003E027F8C9
:1036A00015B00135A146914503D1144607F032FF0C
:1036B00022463868814580F090800898AE1E09F156
:1036C000010430F819B0BBF17D0F13D0BBF17B0FB3
:1036D0001BD1944207DA386884427ED2089830F8C9
:1036E00014007B2810D0B846174607F013FF3A465F
:1036F00047460AE094420EDA386884426DD2089850
:1037000030F814007D2806D1013438688642C6D3CB
:1037100063E090460EE0019C9046A6420ADD351B10
:103720002846FFF78FF8394622462B460646FFF714
:10373000B1FD00E000261FFA8BF07D2818BF07F0CE
:10374000E9FE504604F0E8FF60B1504604F0C6FFC1
:103750000099054601F076FC436828463146002270
:1037600098470CE0BAF1000F08D0BAF1080036D043
:103770004068806941685046884700E000202A4937
:1037800000287944D1F8445118BF05463DB3686814
:103790000299039C09F1010AA1EB000944B10498C4
:1037A000294606F0D7F8B9F1010FFFF636AE30E63C
:1037B000049EB9F1010F03DB3046494607F094FD42
:1037C00030462946049606F0C5F8002C3FF425AE95
:1037D000B9F1000F3FF71DAE1FE6FEF707FFFDF73B
:1037E00099FD0D48784400F108040C48784400F134
:1037F00008012046FEF7D0FB014600200860204665
:10380000FEF728FC0648784400F10804054878448F
:10381000EDE7C046C2B30100ACD2FF1790AE010085
:103820008AD2FF176EA201000AD1FF1770B50446B5
:1038300074B165682846FFF705F8064646B104F1FD
:10384000080006F108012A46FFF78CFC304670BDDF
:10385000FDF760FDF0B581B014460D4608B106468F
:103860000EE055EA040104D11D487844D0F84471B3
:103870002DE0194900287944D1F8446118BF064663
:103880001648002C7844D0F8440108BF0446002DA7
:1038900008BF0546F6B1002D18BF002C1AD070687D
:1038A0006968084461680844FEF7CCFF002132468D
:1038B0000746FFF7C3FC716838462A46FFF7BEFC8F
:1038C00068687168224601443846FFF7B7FC3846FD
:1038D00001B0F0BDFDF71EFD16D0FF1708D0FF1791
:1038E00022D0FF1700F1080C0CEB4203002B1FBF86
:1038F0002CF81210511C0CEB4102002A03D00023BB
:1039000013804160704780B5FDF704FD10B502EBF0
:10391000010C510000F108034FF0200E03E0A4F861
:1039200000E002310132624502DA5C18F7D108E0AA
:1039300003EB420100291FBF00220A80C0F804C027
:1039400010BDFDF7E7FCF0B581B015460446A9B1FE
:103950004E6804F1080701F1080007EB4502114623
:103960003246FFF7FFFBA81907EB400100291FBFF4
:1039700000220A80606001B018BFF0BDFDF7CAFCEC
:10398000F0B581B0069F04461D4604F10806002DDF
:1039900010DD29B10868002804D018D0081D02E005
:1039A000002000E0002000EB420006EB47012A4621
:1039B000FFF7D8FB781906EB400100291FBF002252
:1039C0000A80606001B018BFF0BDFDF7A3FCFEF7F0
:1039D0000DFE80B50A4618B1416800F003F880BDBD
:1039E000FDF798FC70B5064610460D46FEF72AFF17
:1039F000044696B1706850B17CB106F1080004F13C
:103A000008012A46FFF7AEFB2046656070BD002C1A
:103A10001FBF00206060204670BDFDF77BFCD0E931
:103A2000002101319142A8BF704700EB41000830EE
:103A300002D000210180704780B5FDF76BFCC046C5
:103A400080B5084808491922784479440830C1F8FB
:103A500044010648D1F8481178440830FEF740FA8E
:103A600080BDC04678CD010042CEFF17F42501008D
:103A700070B50C460B49054609487844794408302E
:103A80000831FEF789FA2946064606F02FF8304637
:103A900047214FF0FF32234606F076F870BDC0464E
:103AA00016D0FF17D0AB0100B0B504460E480D4646
:103AB000784400F108012846FEF772FC002804BF94
:103AC0000020B0BD0948784400F108012846FEF7FF
:103AD0006FFD30B10168226800208A4208BF0120D2
:103AE000B0BDFDF717FCC0469CA2010086A20100F4
:103AF00010B50468FEF7CAFD01462046FFF7B8FF7F
:103B000010BD0068704710B50468FEF7BFFD0146A0
:103B10002046FFF7ADFF10BDB0B505680C46FEF7B7
:103B2000B5FD024628462146FEF7A8FFB0BD93EA40
:103B3000E27F04BF0260704780B500F001F8C04624
:103B400010B50848784400F108040748784400F1AB
:103B500008012046FEF720FA0146002008602046B2
:103B6000FEF778FA4CCFFF1740A40100B0B5054628
:103B70000E480C46784400F108012046FEF710FC80
:103B8000002804BF0020B0BD09482D68784400F12A
:103B900008012046FEF70CFD2CB1216800208D4263
:103BA00008BF0120B0BDFDF7B5FBC04608A201006B
:103BB000F0A10100006820F000407047B0B5054654
:103BC0000B480C467844083000F018F80949821078
:103BD000794401F108030849184679440831FFF790
:103BE0005DFA02462846214600F010F8B0BDC046F6
:103BF00088CEFF17C0CEFF17D2A1010080B5FCF719
:103C00005BFF002808BF4FF4805080BD70B50E46A2
:103C10003A49044638481546784479440830083112
:103C2000FEF7BAF920643648BFF35F8F784450E856
:103C30006B1F013140E86B12002AF8D141F080502F
:103C4000BFF35F8F40F00D7020602E48C4E903651C
:103C5000784400F108052C48784400F1080628460D
:103C60003146FEF799F90460606128463146FEF757
:103C700093F908210460C4E906012448784400F15E
:103C8000080628463146FEF787F9846020622846F8
:103C90003146FEF781F9846060621D48784400F186
:103CA00008012846FEF778F9064600F095F919480C
:103CB000E662784400F108012846FEF76DF90646F1
:103CC00000F0AEF902202663A0601348784400F1AA
:103CD00008012846FEF760F9104A214605467A4455
:103CE000FEF733FE606920B12269294600F0ECF846
:103CF00070BDFDF70FFBC04678CEFF17F2A10100A3
:103D000060CCFF1740CEFF17E4A10100F0A1010035
:103D100000A201001AA2010030A20100D703000096
:103D200010B50146C86910F0080F08D020F008004F
:103D3000C8610C487844083000F01CF810BD0A48EF
:103D4000784400F108040948784400F1080120464D
:103D5000FEF722F9014606487844083008602046FC
:103D6000FEF778F918CDFF1750CDFF1794A001008A
:103D700084CA0100B0B582B00D460446002001900F
:103D800025B3686A00F0AEFE10F0FF0F20D00120CE
:103D9000FCF706FB01902046294600F073FE204602
:103DA0002946FDF713FC00F0A9FE0146204600F06D
:103DB000C6FE0198FCF7F4FA02B0B0BD0198FCF71A
:103DC000EFFA054878440830FDF7F6FAFDF7A2FA55
:103DD0000320FDF753F9C046CCCCFF170146002065
:103DE00011F0080F18BF704711F0100F08BF012025
:103DF000704780B5C82000F003F800F005F880BDDA
:103E000080B504F057FA80BD80B502460548784475
:103E1000C06920B100680B4600F09CFF80BDFDF733
:103E200079FAC0463ECCFF17B0B505462869002890
:103E300008BFB0BD0120FCF7B3FA0446286948B1B9
:103E400004F086FE00202861C5E900002046FCF74A
:103E5000A7FAB0BDFDF75EFA2046FCF7A1FA0248CA
:103E600078440830FDF7A8FA30CCFF17B0B5044607
:103E70000C487844416A0C4878440029D0F8A801DD
:103E800018BF084600281CBF4569002D08D007D080
:103E900068686060FCF734FAA060E868E060B0BD74
:103EA000FDF738FADACBFF1714CAFF17002908D03C
:103EB0001FBF4A6842608A6882601EBFC968C160CD
:103EC000704780B5FDF726FA2DE9F0410C461646FD
:103ED0000546002C18BFB4F108002CD0406880695A
:103EE00041692046884780462EB33746304657F80A
:103EF000041BFEF777F920F007026FF00201A2F130
:103F00009000C5E9012000228742E96098BF0122A4
:103F1000002A1FBF62680264C0F828804FF08072D8
:103F20001FBF426401600221416018BFBDE8F081FB
:103F30001320FDF7A3F8FDF7EDF9C04670B505466F
:103F40000120FCF72DFA0446FCF7F0F90646FCF7D1
:103F5000F7F9C5E901066FF006012046E960FCF7B4
:103F60001FFA70BD2046FCF71BFA0248784408305F
:103F7000FDF722FA24CBFF1710B50948784400F169
:103F800008040848784400F108012046FEF704F8C8
:103F9000014605487844083008602046FEF75AF884
:103FA00014CBFF17F8A30100B8D3010080B511208E
:103FB00000F0E8F80E20FDF761F880687047816036
:103FC000704740687047C068704780B50020002186
:103FD000FDF705FF80BDC046F0B581B004460E4830
:103FE000784400F108050D48784400F10806284699
:103FF0003146FDF7D1FF0027314687602060284613
:10400000FDF7CAFF8760606021680860D4E900019D
:10401000486001B0F0BDC046B0CAFF17C4A301009C
:10402000F0B581B004460E48784400F108050D480B
:10403000784400F1080628463146FDF7ADFF002719
:104040003146876020602846FDF7A6FF87606060E4
:1040500021680860D4E90001486001B0F0BDC046A5
:1040600068CAFF17DCA30100F0B581B001468C6877
:10407000ACB12546002755F8046B01E088470137AD
:10408000B74213DA2068874212D255F8271089B157
:10409000D1E900010028F1D188470137F0E7D1E9E3
:1040A000000110B1884701B0F0BD884701B0F0BDF4
:1040B000FEF79CFAFDF72EF910B50446E06888B1CA
:1040C000FFF7D2FFE069214640F00100E0610848B7
:1040D0007844083000F02CF8132000F053F8122038
:1040E000FCF7CCFFFDF716F900F00EF8EAE7C04642
:1040F0007CC9FF1780B520B16FF02901FFF71EFFC3
:1041000080BDFDF707F9C04607480849784479445F
:10411000406AD1F8A811002818BF0146002918BF2D
:10412000704780B5FDF7F6F840C9FF177EC7FF1747
:10413000B0B582B0044601200D46FCF731F901907C
:10414000A5B1284600F0ACFAE069854203D02846C4
:1041500000F076FA05E000F0D1FC0146204600F0C0
:10416000EEFC0198FCF71CF902B0B0BDFDF7D2F8E7
:104170000198FCF715F9024878440830FDF71CF95E
:1041800018C9FF1710B5C0B2113803280FD8DFE8DF
:1041900000F00208050BFCF77BF910BDFCF780F975
:1041A00010BDFCF779F910BDFCF77EF910BD094888
:1041B000784400F108040848784400F108012046DA
:1041C000FDF7EAFE014605487844083008602046BD
:1041D000FDF740FFE0C8FF17949E0100A4C6010050
:1041E00080B503487844083000F004F880BDC0462C
:1041F00068C8FF1770B5044600F0BEFC14481549A6
:1042000078447944406AD1F8A861002818BF06466E
:10421000002E304618BF0120B8B10120FCF7C0F8CD
:10422000054620463146FDF7D1F92046002100F031
:1042300086FC2846FCF7B4F870BD2846FCF7B0F8B9
:10424000054878440830FDF7B7F80420FCF716FF5E
:104250004CC8FF178AC6FF174EC8FF172DE9F0415B
:104260008846054600F056F8B8F1000F1CBFD8F894
:104270000800002846D024497944D1F88820D1F894
:104280008410D0E9046787EA020071400843286B74
:1042900004D14068414600F04AF831E00068006807
:1042A00000F04FF801220146154659B3086890B155
:1042B0008A683AB3D2E904340022B3424FF00003D3
:1042C00098BF0123BC424FF0000498BF012408BFEF
:1042D0001C46002CE7D1404600F034F815F0FF0FE3
:1042E0000ED00A48784490F82000002818BFBDE896
:1042F000F08107487844083000F038F8BDE8F081D4
:10430000BDE8F081FDF706F814C6FF1768C7FF1770
:1043100058C7FF1780B5FCF739F80021022838BFCD
:104320000121002918BF80BD0020FCF7A7FE80B541
:10433000024621B10846114600F004F880BDFCF7A2
:10434000E9FF704702681AB14368536053B11A60BD
:1043500000291CBF4A68002A04D01060C0E900127E
:104360004860704780B5FCF7D5FFC046F0B581B016
:104370000446A06810B31649006879440068D1E982
:10438000216500F0CBFC074612E000F05DF88642A4
:104390004FF000024FF0000388BF01228D4288BF1A
:1043A000012308BF1346002B1CBF0D4606463F687D
:1043B00027B1386820B1B8680028E6D1FCF7AAFF19
:1043C000204632462B4600F0ABFC01B0F0BDC046A3
:1043D00012C5FF1710B50446FFF79CFFECB120464D
:1043E00000F024F8A068C0B10D497944D1F88820C4
:1043F000D1F88410436900695A40484010430BD0FB
:104400000848784490F82000002818BF10BD0648DE
:1044100078440830FFF7AAFF10BDFCF77BFFC046C9
:10442000A2C4FF174AC6FF173CC6FF17016819B19F
:1044300042684A6022B111600021C0E90011704752
:1044400080B5FCF767FFC04610B50446FFF762FF72
:10445000206BD0E90021106800F00EF800281EBF84
:104460004169006910BD03487844D0F88810D0F83D
:10447000840010BD24C4FF17884204BF0020704789
:1044800000281CBF8068704780B5FCF743FFF0B57B
:1044900081B01D4616460446FFF73CFF206B0068BE
:1044A0000068FFF74EFF002104E0002100F022F831
:1044B00001213846D8B107688FB18068B8B1D0E91A
:1044C0000423B2424FF0000288BF0122AB424FF0FA
:1044D000000388BF012308BF1346002BE5D011F06D
:1044E000FF0F1CBF204600F025F801B0F0BDFCF71F
:1044F00011FFC046F0B581B004460E46207E60B97B
:1045000001200127FBF74CFF0546667627762046FB
:1045100004F0C6FB2846FBF743FF01B0F0BD284678
:10452000FBF73EFF024878440830FCF745FFC046E1
:104530006AC5FF1780B5014602487844083000F08C
:1045400003F880BD12C5FF17B0B582B00446012044
:104550000D46FBF725FF0190ADB1E86910F0200F83
:104560000CD020F02000E86120462946FDF72EF807
:1045700000F0C4FA0146204600F0E1FA0198FBF78A
:104580000FFF02B0B0BDFCF7C5FE0198FBF708FFB6
:10459000024878440830FCF70FFFC046FEC4FF17FE
:1045A00070B5064601200D46FBF7FAFE044645B1FC
:1045B000F06A2968406800F011F82046FBF7F0FE29
:1045C00070BDFCF7A7FE2046FBF7EAFE02487844E0
:1045D0000830FCF7F1FEC046C2C4FF1780B50246A2
:1045E00021B10846114609F09BFB80BDFCF792FE05
:1045F000B0B505460120FBF7D3FE044635B1286867
:1046000000F010F82046FBF7CBFEB0BDFCF782FEB1
:104610002046FBF7C5FE024878440830FCF7CCFE84
:1046200078C4FF17016819B142684A6022B111606D
:104630000021C0E90011704780B5FCF76BFEC04651
:1046400010B50446074821467844083000F00CF8BD
:10465000E06940F01000E061A06A002818BF00F097
:104660000FF810BD04C4FF1780B539B1D1E90DC2F0
:10467000CB6B2430614600F073FA80BDFCF74AFE34
:1046800080B5012101710068002818BFB0F1080150
:1046900004D0496889698969884780BDFCF73AFE7A
:1046A000B0B505460120FBF77BFE0446286BD0E938
:1046B00000211068FFF7E0FE20B10021FFF71AFF8C
:1046C000F4E70EE0E86AD0E90021106800F020F875
:1046D00078B1B0F1080116D04968896989698847BD
:1046E000F0E72046FBF75CFE084878440830FCF70A
:1046F00063FE686A00F017F8286A00F014F8204694
:10470000FBF74EFEB0BDFCF705FEEAE7A6C3FF17B8
:10471000884204BF0020704700281CBF8068704793
:1047200080B5FCF7F7FD016819B142684A6022B113
:1047300011600021C0E90011704780B5FCF7EAFD67
:1047400010B50C46C16819B1C16911F0080F01D04C
:10475000012010BD11F0010F1CBF002010BD94B14D
:1047600041692046FFF7A2FB00200021FDF737FB3F
:1047700000F00EF8002818BF012030B12046FFF7E6
:10478000FBFB012010BDFCF7C5FD0220FCF776FC09
:1047900080B503497944D1F83C1107F0BCFA80BDDB
:1047A000F8C0FF17B0B50C460546FFF7B3FD074844
:1047B000074978447944406AD1F8A821002818BFF5
:1047C00002462A60C1F8A841B0BDC0469AC2FF1790
:1047D000D8C0FF17017801F0FE010C2904BF406822
:1047E000704780B500F002F8083080BD80B510F148
:1047F000080F05D0D0E90121104600F003F880BD74
:10480000FCF788FD50B1D0E9002000FB0120002812
:1048100008BF0120073020F00700704780B5FCF783
:1048200079FD043102220439042938BF704740F869
:10483000042BF8E780B5037803F0FE0C0023BCF1ED
:10484000040F08BF0123E3B9090241EA822C04E006
:10485000BFF35F8F734508BF80BDD0F800E0BFF3A2
:104860005F8F5FFA8EF141EA0C0150E8003F73451B
:1048700004D140E80012002AF7D1E9E7BFF32F8FF7
:10488000E6E70720FCF7FAFB4FF40060704770473B
:1048900070B504461248784400F108051148784480
:1048A00000F108012846FDF777FB0F4A214606462E
:1048B0007A44FEF74AF80D48784400F1080128468A
:1048C000FDF76AFB31460546FFF778F9E560FFF72B
:1048D000DEFF0749E0687944C1F8A80170BDC04611
:1048E000FAC1FF175E960100410000000497010025
:1048F000B6BFFF1780B500F04DFA0420FCF7BEFBF1
:10490000FFF702FC0420FCF7B9FBC0462DE9F0419B
:1049100004462C488846784400F108062A48784422
:1049200000F1080730463946FDF736FB054600F032
:1049300055F8304639462560FDF72EFB054600F058
:104940004DF8304639466560FDF726FB054600F018
:1049500045F81E48A560784400F108013046FDF78F
:104960001BFB0646B4F108002AD040682146806946
:10497000026E3046FDF7E9FF1548784400F108055E
:104980001448784400F108012846FDF705FB31463C
:1049900042460746FFF73AF90F482761784400F18D
:1049A00008012846FDF7F8FA00210122054600F02B
:1049B00053F865612046216900F064F8BDE8F08194
:1049C000FCF7A8FC7AC1FF17CE960100A69501005E
:1049D00016C1FF173A96010080960100F0B581B02C
:1049E00004460E48784400F108050D48784400F16B
:1049F000080628463146FDF7CFFA00273146876082
:104A000020602846FDF7C8FA87606060216808606A
:104A1000D4E90001486001B0F0BDC046ACC0FF174A
:104A20008094010010B504460846FFF7E9F90246F4
:104A300020680B4600F08EF910BD80B5B0F108017A
:104A400007D04968002289694B694FF0FF319847C8
:104A500080BDFCF75FFCC046B0B504460748217135
:104A60000749A2607844794408300831FDF794FA88
:104A70002146054604F056F92560B0BD2CC0FF174D
:104A8000A69C0100B0B50C460546FFF743FC002C80
:104A90001CBF2868002804D0216A406800F018F87C
:104AA000B0BDFCF737FC704710B50469C461C0683D
:104AB00030B1FFF735F9002C1CBF6069002801D127
:104AC000FCF728FC1120FFF75DFB0E20FCF7D6FA5F
:104AD00080B5024621B10846114600F048F980BD74
:104AE000FCF718FC014600200A68002A18BF70472E
:104AF0004968002908BF01207047C04680B504F00E
:104B0000E7F888B1411E0E2984BF082080BD0B2024
:104B1000DFE801F0120D08080808121212120E1038
:104B2000120C0C000C2080BD002080BD0A2080BD2E
:104B30000D2080BD0E2080BD0E20FCF79FFAB0B581
:104B40000D460446FCF764FD45F00800082818BF30
:104B5000B0BDD4E90701884218BF00F0A8F8B0BD85
:104B6000D0F800C061440160D0E9011C891841609F
:104B70004CEB03018160704780B5064878440830EB
:104B800002F0A6FE10F0FF0F18BF80BD0120FCF759
:104B900075FAC046C8190100B0B582B00D4604468A
:104BA000FFF7EAFF0120FBF7FBFB0190ADB3287E86
:104BB00070BBAD68002D1CBFA06800282DD0696AAD
:104BC0004068FFF785FFE86940F02000E861207E3B
:104BD00010B92046FFF7CAFBFFF790FF01462046B9
:104BE000FFF7ADFF287F10F0200F11D00198FBF7E1
:104BF000D7FB0446FBF7C8FC2046FBF7D1FBF1E7E7
:104C00000198FBF7CDFB064878440830FCF7D4FB4D
:104C10000198FBF7C5FB02B0B0BDFCF77BFBEFE7EB
:104C200088BEFF1710B50446E169FCF7CFFC2046AB
:104C3000FCF7EEFC10BDB0B50446256A206985423C
:104C400011D0616899B1D1E90001496800F01CF800
:104C50000028014618BF012159B1A84203D02046BF
:104C600000F01DF8B0BD204600F006F8B0BDFCF71E
:104C700051FB0520FCF702FA80B5406B10B108F03B
:104C8000A3FE80BDFCF746FB814204BF00207047B5
:104C900000291CBF8868704780B5FCF73BFB80B5D6
:104CA000406B10B108F069FE80BDFCF733FB80B5A6
:104CB0004FF08050FBF7CCFB80BD80B5FCF7A8FC23
:104CC00080BD884204BF0020704700281CBF806858
:104CD000704780B5FCF71EFBF0B581B0044601209B
:104CE0001D4616462076A06878B10068006800F07E
:104CF00015F804E032462B46FFF7C9FB384620B1D1
:104D0000076827B180680028F4D1FCF703FB002076
:104D100020762046FFF72AFB01B0F0BD7047C04661
:104D200080B50B49806B7944D1E921C183EA010E3A
:104D300082EA0C0151EA0E0103D030B108F0CCF93F
:104D400080BD10B108F0D3F980BDFCF7E3FAC0468E
:104D500066BBFF1780B5002818BFB0F1080104D06A
:104D6000496889694969884780BDFCF7D3FA0268B8
:104D70001AB14368536053B11A6000291CBF4A68D6
:104D8000002A04D01060C0E900124860704780B566
:104D9000FCF7C0FA10B500F06BFB04467CB120466E
:104DA00000F08AFB2046012100F0B0FBFFF721F85C
:104DB0002046002100F0AAFBFFF71BF8F2E7FCF702
:104DC000A9FAC0697047C2698A4208BF704780B5B6
:104DD000C161FFF730FFBDE880407047D0E907129E
:104DE0000020914218BF01207047C04680B5054899
:104DF0007844806820B100680068FFF78FFF80BDAD
:104E0000FCF788FA5CBCFF1780B50120FBF7C8FAF5
:104E100000F024F810F0FF0F16D00020FBF72AFB5B
:104E20001120FBF7F9FA6FF00C0000F02BF86FF08F
:104E30000A0000F027F86FF00B0000F023F86FF085
:104E4000090000F01FF880BD03487844083000F0E6
:104E50000FF81020FCF712F9D2B9010080B5FBF76A
:104E60003BFA002110F0020F08BF0121084680BD67
:104E700080B5014602487844083003F0E7F980BD68
:104E8000CA18010080B500210028B8BF012121B354
:104E900010F12A0F01D100200DE000F10E010D29C3
:104EA0001ED80020DFE801F007070A0F141C1C1CA5
:104EB0001C071F1C1919FBF7B9FA80BD4FF480308D
:104EC000FBF7B4FA80BD4FF40030FBF7AFFA80BDBA
:104ED0004FF48020FBF7AAFA80BD0920FCF7CEF83A
:104EE0000920FCF7CBF80E20FCF7C8F880B5FBF7DB
:104EF0004DFA0021022838BF0121084680BD80B547
:104F0000FBF770FA00F0010080BD80B5FBF73EFAB8
:104F1000012884BF002080BDFBF764FA00F0010087
:104F200080BD80B54FF0A530FBF71CFC80BD80B57F
:104F3000FBF7F0FB00F08000C00980BD80B5FBF7F7
:104F4000E9FB00F40040C00B80BD80B5FBF7E2FB3D
:104F500000F40070400A80BD80B50A46014603484F
:104F60007844083003F07EF980BDC046E0170100A8
:104F700080B507480749084A0123C0F24003784436
:104F800079447A44083008310832FFF7F1FF80BDD8
:104F90004E1501000CBF0100BABF01007047C046AA
:104FA00080B507480749084A0123C0F24003784406
:104FB00079447A44083008310832FFF7F1FF80BDA8
:104FC0001E150100DCBE01000AC101007047C04689
:104FD00080B50120FBF7C4F900F014F810F0FF0FC2
:104FE00006D00020FBF746FA0020FBF715FA80BD3B
:104FF000034878440830FFF73BFF1020FCF73EF8E9
:105000002AB8010080B5FBF767F9002110F0020F04
:1050100008BF0121084680BD80B5FBF797F901283C
:1050200018BF002080BD80B5FBF7B0F90021022831
:1050300038BF0121084680BD80B54FF0A530FBF791
:1050400091FB80BD80B5E8B108381CBF40680028DE
:1050500018D0D0F81CC000230CF1040006E0026850
:105060008A4204BF406880BD08300133BCF1000FA4
:1050700008D0DCF800209342A4BF002080BDEED30E
:10508000FDF7B4FAFCF746F970B50C460646002C5D
:105090007ED0A068314600F081F810F0FF0F67D194
:1050A000317D11F0800F60D0207D002510F0800F41
:1050B0005CD0C7294FF0000008BF0120C629354940
:1050C00008BF01207944083100F07EF8207D317D51
:1050D00081424BD13049B068794401F1080631462C
:1050E00000F074F90546A068314600F06FF9002D14
:1050F000044618BFB5F108064AD070682146806999
:10510000C26A2846904710F0FF0F2ED07068806961
:10511000816928468847002818BFB0F1080137D0B8
:1051200049688969C9698847002C054618BFB4F1E8
:1051300008002DD040688069816920468847002892
:1051400018BFB0F1080123D049688969C969884747
:10515000002D18BF00281BD02A6A016A8A4207D096
:10516000B1B1087D10F0200F05D00025284670BD94
:105170000125284670BD5AB1107D432804D1C86965
:10518000114600F041F970BD1046FFF77DFF70BD7C
:10519000FCF7C0F878C10100A48F010070B50C467F
:1051A0000546002600E0ED6928460021FDF7AAFD2E
:1051B00010F0FF0F04D12DB1286A8442F3D10126EB
:1051C000304670BDFCF7A6F8B0B50C4610F0FF0FE6
:1051D00018BFB0BD09480022784400F1080508480E
:1051E000784400F108012846FDF758FF01462046A3
:1051F00006F010FC01462846FCF72CFFB8B8FF1754
:105200005C9501002DE9F04F81B0904699468A46A1
:10521000074618F0FF0F25D0B7F1080400F09E8074
:1052200060688069416A3846884710F0FF0F06D0F1
:10523000BAF1000F00F092805D4878440DE060689C
:105240008069016A3846884710F0FF0F0AD0BAF12A
:10525000000F00F083805548784400F10801504663
:1052600004F078FB19F0FF0F04D0387807F0A4FCA5
:10527000014600E0002119B1BAF1000F35D16DE00F
:1052800078690021FDF73EFD10F0FF0F16D1786917
:10529000002818BFB0F1080160D0496800224B46D1
:1052A00089698E6A5146B047BAF1000F56D041481D
:1052B000784400F10801504604F04CFB396900299C
:1052C0001CBF486800280CD0BAF1000F46D05046E9
:1052D00004F040FB3848784400F10801504604F0DF
:1052E00039FBBAF1000F39D0F968504604F032FBAF
:1052F000B869002857D0BAF1000F2FD02F48784452
:1053000000F10801504604F025FBB86900281CBFD5
:105310000668002E22D0316811B32B48351D0024B9
:10532000784400F1080B07E0496842464B4689691A
:105330008F6A5146B8470134306884422CDA1CB178
:105340005046594604F006FB3068844222D255F894
:105350002400002818BFB0F10801E5D1FBF7DAFFFF
:105360004468CCB11648261D0027784400F1080592
:1053700005E056F83710504604F0ECFA0137206883
:10538000874209DA1FB15046294604F0E3FA206843
:105390008742EED3FDF72AF90A48784400F1080164
:1053A000504604F0D7FA01B0BDE8F08F14CD0100EB
:1053B000A2D501002CC8010006C80100AECC010036
:1053C00092C7010072CC0100DCC7010010B5A8B182
:1053D000FCF768FD002818BF10BD0948784400F1AB
:1053E00008040848784400F108012046FCF7D4FD81
:1053F0000146002008602046FCF72CFE002010BD6E
:10540000B4B6FF17388F010080B598B150F804C9C1
:10541000624606E050F832208A421A4604BF012054
:1054200080BD531E002BBCBF002080BD6345F1D35F
:10543000FDF7DCF8FBF76EFFB0B50C460A490546F0
:10544000084801227844794408300831FDF726FEE7
:10545000024606485460784400F108012846FDF7EA
:10546000B1FFB0BD4CB6FF17F692010066BE010059
:10547000B0B582B0012000256946009001A80195D1
:1054800007F04CFD10F0FF0F1EBF019802B0B0BD39
:105490000748784400F108040648784400F1080100
:1054A0002046FCF779FD014620460D60FCF7D2FD51
:1054B000FEB5FF17929301002DE9F041044607F075
:1054C0006FFD6068012808BFBDE8F0810E482568BF
:1054D000784400F1080628463146FFF7B3FD82689C
:1054E000284601214FF0010890472568A7683146FA
:1054F0002846FFF7A7FD4268284639469047C4F87A
:105500000480BDE8F081C046EC960100B0B50C46C1
:10551000054607F045FDAC606868012818BFB0BDBE
:1055200006482D68784400F108012846FFF78AFDF7
:105530004268284621469047B0BDC0469896010073
:1055400080B50F4878440830FFF75EFC00F056F84D
:105550000020FBF737FBFBF715F8FEF7DBFE6FF0DB
:1055600004000521FBF73AFB4FF0FF300721FBF762
:1055700035FB6FF001000E21FBF730FB80BDC0460C
:105580000010010010B50548784400F108042046D9
:1055900000F03CF8204600F05AF810BD34B5FF1773
:1055A000B0B504460948784400F108052846FFF7DD
:1055B0006FF900F051F82846214600F071F80448D0
:1055C0007844083000F0B0F8B0BDC046A6B4FF176C
:1055D0003CB5FF1780B503487844083000F01EF949
:1055E00080BDC046C0B4FF1780B50348784408307A
:1055F00000F01AF980BDC04660B4FF1780B5FAF715
:10560000FBFE20F08040FAF7FDFE80BD10B582B0B1
:1056100004460020CDE90000204602F0CCFD01A8A0
:10562000FBF736FA07F0C4FD01986A460021FBF744
:1056300047FA07F0BDFD00994FF42863E160019837
:105640000A182046226102F0BFFD02B010BD80B5ED
:1056500002F0D7FD80BDC04680B502F081FE02F0A9
:10566000BBFE02F037F802F015FE02F0CFFE02F0AA
:10567000BDF802F00FFF02F06BFF02F0D9FF02F05D
:10568000F1FF03F00DF803F01FF804484FF6FF7127
:1056900078440166FEF7D4F980BDC046FCB1FF171F
:1056A000F0B581B00446FFF731F91A48784400F1AB
:1056B00008051948784400F108012846FCF76CFCFD
:1056C000164A002106467A44FDF73FF91448802225
:1056D000784400F108012846FDF7E0FC0746114830
:1056E000784400F108012846FCF756FC31463A465A
:1056F0000546FEF78BFA204629462563FFF7C2F9D7
:10570000206B20B14069FEF7F5FC01B0F0BDFBF75E
:1057100001FEC046E4B3FF174888010017BCFFFF35
:10572000DC860100DC88010070B504463648784408
:1057300000F108053548784400F108012846FCF7D7
:105740002BFC064600F0C2F830602046A66000F050
:1057500091F8E0602E484FF48072784400F108011F
:105760002846FDF79BFC60612A482022784400F11E
:1057700008012846FDF792FCE0610025646804E01A
:10578000496889694969884701355CB12068854263
:105790000ADA34D204EB85004068002818BFB0F163
:1057A0000801EDD1FBF7B6FD1B4800227844816863
:1057B000002002E0096810461A4689B10B462AB15A
:1057C0008B6896689E42134688BF0B460A4600289F
:1057D000F0D0CA68C6689642024638BF0A46E9E772
:1057E0000028014618BF0121002A08BF114641B117
:1057F000C168906800F07CF800F09AF870BDFCF782
:10580000F5FE0A20FBF73AFC62B3FF17A6890100F8
:10581000B2890100D089010010B3FF1780B507F0ED
:105820007AFC07F07FFC80BDB0B5044607F0DCFBD6
:105830000A480B497844794408300831FCF7ACFB3E
:10584000084A214605467A44FDF77FF8284607F0C6
:1058500023FCA06307F034FCB0BDC0465CB2FF1768
:10586000E6930100377800004FF4807070472020E5
:105870007047C04610B50649044604487844794448
:1058800008300831FCF788FB046010BD14B2FF1724
:105890002E88010070B5044600290DD00CD0D1E946
:1058A000015603E0316800F015FF0436AE4228BF10
:1058B00070BD20680028F5D1FBF72CFD0120704752
:1058C0004FF48060704780207047C04680B506481E
:1058D00006497844794408300831FCF75DFB032120
:1058E0000160FDF715F880BDBEB1FF17488D0100BE
:1058F000B0B5044604200D1B4FF6FC7100EBD5201B
:10590000C0F23F0100EA01020648074978447944A1
:1059100008300831FDF7C2FB04497944C1E902456A
:105920000861B0BD84B1FF174E89010072B2FF1744
:10593000F0B581B000F092FE19487844846800E028
:105940002468002C04BF01B0F0BD204600F09CFE8E
:10595000E7680546BD42F3D2E5B128780D281BD88B
:10596000DFE800F0111116161A1A1A1A07070707AE
:1059700007072846FEF72EFF06462846314600F068
:1059800017F83544E6E72846FEF724FF0544E1E72B
:105990000435DFE7FBF7BEFC0D20FBF76FFBC046CD
:1059A00082B1FF1780B50846114600F001F880BDAE
:1059B000174A7A44D3689268801A984226D2154AC8
:1059C00001444FEAD02C6FF3DF200139C90A7A4431
:1059D0001269131D03EB4C0203EB410133F91C3038
:1059E0008342C8BF108000E0108002328A4288BF24
:1059F000704748F20103A0F50060CFF6FF739842AC
:105A0000BCBF48F20000CFF6FF70EDE77047C0461C
:105A1000DAB1FF17BEB1FF17B0B50C46204600F053
:105A200035F818497944D1F8B011884208BFB0BDA3
:105A3000054615B328780D2821D8DFE800F01010AE
:105A4000070720202020090909090909281DEFE777
:105A50002846FEF7BFFE28448442E9D20AE02846E1
:105A6000FEF7B8FE28448442E2D207487844D0F8D2
:105A7000B001B0BD05F10800B0BDFBF74BFC0D2037
:105A8000FBF7FCFA68AEFF1720AEFF1770B51E4992
:105A90007944CB688968421A9A422FD2D30A6FF4AC
:105AA000804E002401EBC32218497944096901F1B1
:105AB000040C0CEB430302E0A2F58042103B9C4532
:105AC0001CD8B3F900107145F6DDB1F5006F4FF049
:105AD00000054FEAE17688BF0125002E4FF0000651
